:020000040800F2
:10000000780A0020910100087B0D0008C90C000847
:10001000790D0008D3040008F30F00080000000069
:100020000000000000000000000000008D0F00082C
:10003000D5040008000000008B0F00088F0F000897
:10004000AB010008AB010008AB010008AB010008E0
:10005000AB010008AB010008AB010008AB010008D0
:10006000AB010008AB010008AB010008AB010008C0
:10007000AB010008AB010008AB010008AB010008B0
:10008000AB010008AB010008AB010008AB010008A0
:10009000AB010008AB010008AB010008AB01000890
:1000A000AB010008AB010008AB010008AB01000880
:1000B000AB010008AB010008AB010008AB01000870
:1000C000AB010008AB010008AB010008AB01000860
:1000D000AB010008AB010008AB010008AB01000850
:1000E000AB010008AB010008AB01000800F002F80A
:1000F00000F03FF80AA090E8000C82448344AAF183
:100100000107DA4501D100F034F8AFF2090EBAE880
:100110000F0013F0010F18BFFB1A43F0010318473B
:100120006843000088430000103A24BF78C878C1B3
:10013000FAD8520724BF30C830C144BF04680C60ED
:10014000704700000023002400250026103A28BF35
:1001500078C1FBD8520728BF30C148BF0B60704739
:10016000642900F07D80002070471FB51FBD10B5C9
:1001700010BD00F074F91146FFF7F7FF00F0B8FF6B
:1001800000F092F903B4FFF7F2FF03BC00F09AF914
:100190000948804709480047FEE7FEE7FEE7FEE71B
:1001A000FEE7FEE7FEE7FEE7FEE7FEE70448054957
:1001B000054A064B70470000F10F0008ED000008EB
:1001C00078040020780A00207806002078060020B5
:1001D0000FB41CB5074B06AA7B44694600900598EE
:1001E00000F025F90020694600F034F91CBC5DF8E8
:1001F00014FB0000790200002DE9F0410E46044690
:10020000002020622046E168884730B3252805D0C9
:10021000D4E901219047206A401CF2E7E1682046BA
:1002200000278847050018D0A5F14100192802D8F9
:1002300020354FF400673246294620462760FFF7F5
:100240008FFF40B1012804D0F61D26F007060836BE
:10025000D8E7361DD6E72846DAE7206ABDE8F08100
:100260002DE9F0410646002410687529314616A58F
:1002700010D0AFF30080002802DA404213A507E057
:1002800031688A0701D512A502E0490704D511A5F6
:10029000012401E0AFF3008000210A2206F12407C7
:1002A00009E0B0FBF2FCB0FBF2F302FB1C003030C3
:1002B00078541846491C0028F3D123462A46304674
:1002C000BDE8F04100F054B8000000002D0000002F
:1002D0002B000000200000004FF000020429C0F0B5
:1002E000128010F0030C00F01B80CCF1040CBCF168
:1002F000020F18BF00F8012BA8BF20F8022BA1EBBA
:100300000C0100F00DB85FEAC17C24BF00F8012B9E
:1003100000F8012B48BF00F8012B70474FF0000296
:1003200000B5134694469646203922BFA0E80C50EB
:10033000A0E80C50B1F12001BFF4F7AF090728BFC6
:10034000A0E80C5048BF0CC05DF804EB890028BF42
:1003500040F8042B08BF704748BF20F8022B11F06B
:10036000804F18BF00F8012B7047704770477047E7
:100370002DE9F0470D4699469246044600F12408BF
:100380000168880604D5E06921F01001216000E0D1
:100390000120A84201DD471B00E00027A1697A196E
:1003A00002EB0900081AA0612078C00602D420469A
:1003B000AFF30080002608E0D4E901211AF8060016
:1003C0009047206A401C761C20624E45F4DB207862
:1003D000C0060AD52046AFF3008006E0D4E901212B
:1003E00030209047206A401C2062381EA7F1010788
:1003F000F4DC07E0D4E9012118F805009047206AF1
:10040000401C2062281EA5F10105F3DC2046AFF355
:1004100000802078000602D50220BDE8F087012088
:10042000FBE7000001694A1C02610878704700B5CB
:100430008FB0CDE901310021059105497944CDE91D
:10044000031011466846FFF7D7FE0FB000BD00004D
:10045000E5FFFFFF0A6802F8010B0A607047754666
:1004600000F02CF8AE4605006946534620F0070020
:10047000854618B020B5FFF799FEBDE820404FF043
:1004800000064FF000074FF000084FF0000B21F07E
:100490000701AC46ACE8C009ACE8C009ACE8C0094B
:1004A000ACE8C0098D46704710B50446AFF3008034
:1004B0002046BDE81040FFF765BE000000487047C9
:1004C0001804002001491820ABBEFEE726000200F8
:1004D0007047FEE77047000070B5044600F004F96D
:1004E0000546601C02D004480078044400F0FCF883
:1004F000401BA042FAD370BD000000202DE9F84F48
:10050000DFF8B8910024A9F1040B23460F2709F165
:10051000040AABF1040EC9E00125A5402A40AA4215
:100520007DD1674ED1F804C0ACEB0608B44532D09B
:1005300014DCBCF1030F3AD009DCBCF1000F2AD067
:10054000BCF1010F1CD0BCF1020F31D11DE0BCF198
:10055000110F17D0BCF1120F2AD119E0B8F5881F7E
:1005600019D006DCB8F5803F15D0B8F5801F1FD133
:1005700011E0B8F5001F0ED0B8F5041F18D10AE03D
:10058000CB6815E0CB681B1D12E0CB6808330FE089
:10059000CB680C330CE08B682BB1012B4FF00803B8
:1005A00003D0456104E0042302E0056100E000237C
:1005B000FF2A01D8064601E000F104064FEA84054F
:1005C00001D9A5F12005D6F8008007FA05FC28EA34
:1005D0000C0803FA05F548EA0508C6F800804D68DE
:1005E000ED0062D5374DAE6946F00106AE61AD69EA
:1005F00024F0030605F001050095334D06EB050CCC
:10060000DCF80850A607360F07FA06F825EA0805B1
:10061000DFF8B880404503D14FF0000817E044E010
:10062000DFF8AC80404502D14FF001080FE0DFF861
:10063000A480404502D14FF0020808E0DFF898801E
:10064000404502D14FF0030801E04FF0040808FADA
:1006500006F848EA0508CCF808804D68D9F800602B
:10066000ED024D4601D5164300E096432E604D68DD
:10067000DAF80060AD02554601D5164300E0964316
:100680002E604D68DBF80060AD035D4601D5164372
:1006900000E096432E604D68DEF80060ED0375467D
:1006A00001D5164300E096432E60641C0D682A466F
:1006B000E5407FF431AFBDE8F88F00000804014049
:1006C000000011100010024000000140000801402D
:1006D000000C014000100140001401400AB101610A
:1006E00070470904FBE7000001488068704700007C
:1006F0000000002002488168027811448160704740
:1007000000000020074810B5016841F010010160A9
:10071000032000F067F80F2000F006F800F024F83E
:10072000002010BD0020024070B50D4D04464FF46E
:100730007A712878B1FBF0F00A490968B1FBF0F052
:1007400000F0AEFA48B9102C07D200222146501E04
:1007500000F028F800206C6070BD012070BD000022
:10076000000000200C0000200C4808B5816941F011
:1007700001018161816901F001010091C16941F0CC
:100780008051C161C06900F0805000900448416808
:1007900021F0E06141F00071416008BD00100240AD
:1007A00000000140F0B40E4B1B680C46C3F302235B
:1007B000C3F10705042D00D90425191D072901D20D
:1007C000002300E0DB1E012606FA05F1491E214048
:1007D00099409E40761E16403143F0BC00F00ABCA2
:1007E0000CED00E0064900F0070208684FF6FF0331
:1007F000184040EA0220034A104308607047000096
:100800000CED00E00000FA052DE9F0470F46050069
:1008100061D0434E306800F00700B84209D230681A
:1008200020F0070038433060306800F00700B8421D
:1008300051D128683B4C810712D5400703D5606829
:1008400040F4E06060602878000703D5606840F4F9
:10085000605060606068A96820F0F0000843606044
:100860002878C00728D06868012810D0216802289D
:1008700010D0890700292EDA616821F003010143B5
:100880006160FFF731FF804641F288390DE0216851
:100890008903EFE78901EDE7FFF726FFA0EB0801E9
:1008A000494502D90320BDE8F0876068696800F017
:1008B0000C00B0EB810FEFD1306800F00700B842B8
:1008C0000BD9306820F0070038433060306800F002
:1008D0000700B84201D00120E5E72878400705D598
:1008E0006068E96820F4E0600843606028780007E9
:1008F00006D56068296920F4605040EAC100606054
:1009000000F018F86168084AC1F30311515CC8404F
:100910000649086006480068FFF706FF0020C2E7A6
:1009200000200240001002405A2A00080C0000205B
:10093000040000200E4A51680E4801F00C03042BFD
:1009400011D0082B0FD10C48C1F38343C903C05CFD
:100950000AD55168084AC1F34041921E515C054ACC
:100960005043B0FBF1F07047044948437047000022
:100970000010024000127A004A2A000800093D00D7
:100980002DE9F84F040070D02078C04DC00749D041
:100990006868C0F38100012807D06868C0F381004F
:1009A000022809D16868C00306D52868800339D5B4
:1009B00060680028E7D035E06068B0F5803F0BD074
:1009C00010B1B0F5A02F11D0286820F48030286035
:1009D000286820F4802002E0286840F480302860F5
:1009E000606890B1FFF780FE06460AE0286840F490
:1009F00080202860F0E700BFFFF776FE801B6428A8
:100A000073D828688003F7D50CE0FFF76DFE064623
:100A100005E000BFFFF768FE801B6428F0D8286857
:100A20008003F7D420789A4E80074FF001094FF0E9
:100A3000000839D5686810F00C0F07D06868C0F35B
:100A40008100022809D16868C00306D4286880079D
:100A500014D52069012808D110E02069B0B1C6F88A
:100A60000090FFF741FE074605E00AE1FFF73CFE74
:100A7000C01B0228C4D828688007F7D52868616998
:100A800020F0F80040EAC10028600DE0C6F80080C0
:100A9000FFF72AFE074604E0FFF726FEC01B0228E8
:100AA00023D828688007F7D4207800072CD5794808
:100AB000A169D9B1C0F80090FFF716FE074604E01F
:100AC000FFF712FEC01B02280FD8686A8007F7D50F
:100AD00071484FF4FA510068B0FBF1F0009000BF8C
:100AE0000098411E0091FAD20EE080E0C0F800802C
:100AF000FFF7FAFD074604E0FFF7F6FDC01B0228EA
:100B000075D8686A8007F7D42078400760D5E8690F
:100B10000027C00008D4E86940F08050E861E86927
:100B2000012700F0805000905C480168C90513D48B
:100B30000168834641F480710160FFF7D5FD82466C
:100B400006E000BFFFF7D0FDA0EB0A0064284ED8F6
:100B5000DBF80000C005F5D5E06801280AD008B12F
:100B6000052813D0286A20F001002862286A20F0A6
:100B7000040002E0286A40F001002862E06841F2C7
:100B8000883B98B1FFF7B0FD82460BE0286A40F041
:100B900004002862EEE700BFFFF7A6FDA0EB0A0104
:100BA00059455AD8286A8007F6D50CE0FFF79CFD16
:100BB000824605E0FFF798FDA0EB0A0159454CD8A5
:100BC000286A8007F6D41FB1E86920F08050E861F8
:100BD000E06988B36968C1F38101022944D0022821
:100BE000C6F8608004D0FFF77FFD044638E034E0AB
:100BF000FFF77AFD074604E0FFF776FDC01B0228E9
:100C00002BD828688001F7D4206AB0F5803F05D141
:100C10006868A16820F4003008436860D4E90801DE
:100C20000843696821F4741108436860C6F860904D
:100C3000FFF75AFD044606E025E000BFFFF754FD2C
:100C4000001B022809D828688001F7D51BE000BFE7
:100C5000FFF74AFD001B022802D90320BDE8F88FE8
:100C600028688001F4D40EE00128F7D06868226A71
:100C700000F48031914204D1616A00F4701088421E
:100C800001D00120EAE70020E8E700000010024060
:100C900000004242800442420C00002000700040EC
:100CA00010B5401EB0F1807F01D3012010BD4FF080
:100CB000E02460610F21601700F09CF90020A06122
:100CC00007202061002010BDFEE700000D4808B598
:100CD000816941F010018161816901F01001009189
:100CE000816941F020018161816901F02001009159
:100CF000816941F004018161806900F00400009085
:100D000008BD00000010024030B585B0002418482E
:100D10000094019402940394816941F0200181615F
:100D2000816901F020010491816941F00401816130
:100D3000816901F004010491816941F00801816138
:100D400080690C4D00F0080004900022C021284664
:100D5000FFF7C4FCC02000901120CDE9010402205F
:100D6000039069462846FFF7C9FB05B030BD000077
:100D700000100240000C0140FEE7FEE770B50024C1
:100D80000021204600F0CEF80025002000F0ECF80D
:100D90006D1CEDB2802DF8D3641CE4B2082CEFD3A7
:100DA00070BD000010B5064C012240212046FFF71F
:100DB00095FC20460122BDE810408021FFF78EBC43
:100DC000000C01402DE9F0410024124E0746802519
:100DD00025FA04F23A4080213046FFF77FFC0122D9
:100DE00040213046FFF77AFC002240213046FFF7D1
:100DF00075FC641CE4B2082CEAD301224021304681
:100E0000FFF76CFC3046BDE8F04100224021FFF7BF
:100E100065BC0000000C014010B50B4C0122802184
:100E20002046FFF75BFC012240212046FFF756FCDD
:100E3000002280212046FFF751FC20460022BDE819
:100E400010404021FFF74ABC000C014010B5094C8E
:100E5000002280212046FFF741FC0122402120464C
:100E6000FFF73CFC20460122BDE810408021FFF73F
:100E700035BC0000000C014010B500204FF47A7220
:100E80000021491C9142FCD3401C9042F8D3FFF74B
:100E900089FFAE2000F057F8D52000F054F88020EC
:100EA00000F051F8A82000F04EF83F2000F04BF879
:100EB000D32000F048F8002000F045F8402000F072
:100EC00042F8A12000F03FF8C82000F03CF8DA20FA
:100ED00000F039F8122000F036F8812000F033F8E5
:100EE000CF2000F030F8D92000F02DF8F12000F0EC
:100EF0002AF8DB2000F027F8302000F024F8A420A6
:100F000000F021F8A62000F01EF88D2000F01BF85C
:100F1000142000F018F8AF2000F015F8BDE81040DC
:100F2000FFF72CBF10B50C4640F0B00000F00BF8F6
:100F3000102040EA141000F006F804F00F00BDE89D
:100F40001040AFF3008010B50446FFF765FF78202E
:100F5000FFF738FF0020FFF735FF2046FFF732FF8D
:100F6000BDE81040FFF772BF10B50446FFF754FF0D
:100F70007820FFF727FF4020FFF724FF2046FFF7E8
:100F800021FFBDE81040FFF761BF70477047FFF7D2
:100F9000B1BB30B58FB028216846FFF7BFF91421E7
:100FA0000AA8FFF7BBF901210804CDE900100024CD
:100FB000029402250491CDE907504FF4E010099006
:100FC0006846FFF7DDFC08B172B6FEE70F20CDE9F9
:100FD0000A054FF48060CDE90C4002210AA80E9466
:100FE000FFF712FC002801D072B6FEE70FB030BD4B
:100FF0007047FEE70907090E002804DB00F1E02036
:1010000080F80014704700F00F0000F1E02080F835
:10101000141D704700224C2101F05ABA00224D21C4
:1010200001F056BA01684A7B2D2101F051BA10B582
:10103000044601224C2101F04BFA2046BDE8104045
:10104000FFF7F0BF01224D2101F042BA10B504466E
:1010500011B1FFF7F7FF01E0FFF7E0FF2046FFF7D0
:10106000E1FF2046FFF7E3FF2046BDE81040FFF711
:10107000D1BF70B50C46054601F08001FFF7E6FFD1
:1010800004F040012846FFF7E1FF04F02001284664
:10109000FFF7DCFF04F010012846FFF7D7FF04F04C
:1010A00008012846FFF7D2FF04F004012846FFF7A5
:1010B000CDFF04F002012846FFF7C8FF04F001014C
:1010C0002846FFF7C3FF2846FFF7BCFF2846FFF777
:1010D000A9FF2846FFF7ABFF2846FFF7B3FF2846D6
:1010E000FFF7A0FF2846BDE87040FFF793BF000060
:1010F000A6B0FFF707FBFFF707FEFFF74AFFFFF772
:10110000E5FDFFF7B9FE0C4B0C4A0D49684600F0AF
:10111000FFFA684600F0A9FF0021684600F0B5FF1D
:10112000684600F071F84FF47A70FFF7D5F9684619
:1011300000F008F8FEE70000151E00082D21000849
:10114000244300082DE9F0430A24264FDFF8988055
:1011500087B0814626460425484600F055F82046CB
:1011600001F05DFB00223B4601F0D2F9002243462C
:1011700001F06CFB01F024FB02461CA102A8FFF762
:1011800027F81C49484600F07AFA1BA320221021B8
:10119000484600F045FA1B49484600F070FA02AB99
:1011A00031226421484600F03BFACDE90065A3B244
:1011B00028221021484600F03EF9CDE90065502371
:1011C00028221021484600F0A9F9484600F04EFABE
:1011D000A41C502CC0DD07B00520BDE8F043FFF78C
:1011E0007BB90000000054400000594025642525CB
:1011F000000000000B34000853544D3332205538A2
:10120000673200006A2A000801680A7C90F83810EA
:10121000406B5143C900FFF75FB82DE9F8438146A1
:10122000089C1E46101980B20090881983B215469A
:101230008846484600F002FA00280ED00027002C0D
:101240000BD033462A4641464846009700F086F8C0
:101250006D1C641EADB2A4B2F1E7BDE8F8832DE9C0
:10126000F8431C4680461019401C80B200900819B3
:10127000401C83B21546101B82B20E46081B81B279
:10128000089F404600F0DAF9002806D023462A4697
:1012900031464046009700F0F1FABDE8F8832DE9A9
:1012A000F8431C4680461019401C80B20090081973
:1012B000401C83B21546101B82B20E46081B81B239
:1012C000089F404600F0BAF9002806D023462A4677
:1012D00031464046009700F063FBBDE8F8832DE9F6
:1012E000F041044690F870001F4615460E4630B196
:1012F000012809D002280CD0032815D10FE0E16D98
:1013000020468847284408E0E16D20468847301A87
:1013100009E0E16D20468847281A85B204E0E16DB6
:1013200020468847304486B22846A4F86460A4F872
:10133000660039460025204600F00EFD010003D06E
:10134000204600F039FC85B22846BDE8F08138B56A
:101350000024009400F002F838BD00003FB581B0D1
:10136000044690F88C00089900283AD0BDF8100087
:10137000002836D0012811D9022902D0032907D02C
:101380000CE0BDF80820101A401CADF8080005E07C
:10139000BDF80C20101A401CADF80C0011F001052E
:1013A00021D0B4F84810BDF80800814219D8B4F82B
:1013B0004A10814215D9B4F84E30B4F84C2004A933
:1013C0000DF10C0000F03CFA00280AD00095206BCB
:1013D000BDF81030BDF80C208568BDF80810204617
:1013E000A84705B030BDB4F84C10BDF80C008142E0
:1013F000F7D8B4F84E108142F3D9B4F84A30B4F8B3
:10140000482004A902A8DDE708B5B0F84C309342A3
:1014100010D8B0F84E3093420CD9B0F848308B4217
:1014200008D8B0F84A308B4204D900230093012336
:10143000FFF794FF08BD2DE9FF4F83B01F46DDE99C
:1014400010A402EB0A06B0B2CD190090904689466E
:10145000ABB2039800F0F2F800285CD009EB04006E
:101460001FFA80FB08EB040081B2281B401E85B2E6
:10147000301B401E80B2CDE9010102200A460090D7
:10148000234659460398FFF70AFF01200090DDE943
:10149000022023462946FFF702FF0420009023463E
:1014A0005946019A0398FFF7FAFE08200090234658
:1014B0002946019A0398FFF7F2FE0BF101011FFA8A
:1014C00081FB0299381B491C001B80B289B2029132
:1014D000032811D3801E86B2601C85B23346424673
:1014E000594600950398FFF798FE334600955946F4
:1014F000019A0398FFF791FEAAEB0400001B80B24B
:10150000032808D3801E80B20090DDE902203B460C
:101510004946FFF782FE07B0BDE8F08F2DE9FF4F87
:1015200083B01C46DDE9106502EB060A1FFA8AF05B
:1015300001EB04090090174688461FFA89F30398C7
:1015400000F07CF8002867D008EB05001FFA80FB4C
:10155000781981B2A9EB0500401E80B2CDE90110D7
:10156000AAEB0500401E1FFA80F902200A460090EF
:101570002B4659460398FFF772FE01200090DDE9E3
:1015800002102B46019AFFF76AFE042000902B46BA
:101590004A4659460398FFF762FE08200090DDE9AD
:1015A00002102B464A46FFF75AFE601B711B401B78
:1015B000491B8DB20BF101011FFA81FA019980B22A
:1015C000491C1FFA81FB032810D3801E80B281467C
:1015D00003463A465146761E0398FFF7B8FEB819FF
:1015E00082B24B4651460398FFF7B1FE032D13D349
:1015F000AD1EADB22B465A464146641E039800F01C
:1016000017F808EB040081B2039807B02B465A463E
:10161000BDE8F04F00F00CB807B0BDE8F08F000057
:1016200030B4024C446030BC00F064BAF1200008D1
:1016300038B501240094FFF791FE38BD70B50D4612
:101640001E460446B0F84E10B0F84C00049B00F063
:1016500011FC002809D0B4F84A10B4F84800334609
:101660002A46BDE8704000F005BC70BD10B50446C8
:1016700000F08FFC2046BDE8104000F0FEBC10B525
:101680000446806D884209D004F17400A16500F021
:101690004BFC2046BDE8104000F056B810BD0000DD
:1016A0000149C165704700006B1B00080021A0F8CC
:1016B0005010A0F854104FF6FF71A0F85210A0F887
:1016C0005610016B4968084770B504460025049818
:1016D000A565E362616384F8382084F8395084F8A2
:1016E0006D5084F8915084F88D50012184F8921047
:1016F00084F8931020630168204688472046FFF74E
:10170000D5FF2046FFF7CCFF84F8705070BD000075
:101710007CB50C46009313460546084A084900F07C
:10172000BCFC01A800F0FAFB0146064B00949DF8B2
:1017300004202846FFF7C8FF7CBD0000A122000856
:10174000C92300088D1E000810B5816D00291AD02C
:1017500090F9813080F88E3090F9822080F88F20C7
:1017600090F88D1000290ED001290DD090F97E40FF
:1017700090F980100C449C4201DD80F88E408A4232
:1017800001DD80F88F1010BD90F983108B4201DAD3
:1017900080F88E1090F98410F1E72BB1012B05D061
:1017A000022B06D0104402E0084400E0801A80B208
:1017B0007047401AFBE72BB1012B05D0022B06D056
:1017C000401A02E0104400E0084480B27047801ADA
:1017D000FBE738B50446B0F856000090B4F8523034
:1017E000B4F85420B4F850102046FFF727FF18B380
:1017F000012084F88C00B4F84810B4F850008142FD
:1018000001D2A4F84800B4F84A10B4F8520081425A
:1018100001D9A4F84A00B4F84C10B4F8540081423D
:1018200001D2A4F84C00B4F84E10B4F8560081422E
:1018300001D9A4F84E0038BD002084F88C0038BDD2
:1018400030B504880D882544ADB2AC4205D99C4220
:1018500002D25D1EADB200E014469C4201D2954218
:1018600001D8002030BD944200D214469D4200D9D8
:101870001D460480281B0880012030BD2DE9FF4F44
:10188000C3F1010083B006B258429146DDF840A092
:1018900040008B4601271C46CDE9009A00250FFA2F
:1018A00080F85B462246294615E0002E08DB08F149
:1018B00002000FFA80F8641E06EB0800A4B206B21C
:1018C0006D1CBF1C3FB2CDE9009AADB2F01906B253
:1018D0005B4622462946039800F005F8A542E4D36A
:1018E00007B0BDE8F08F2DE9FF4F83B00E46DDE96C
:1018F000108703EB060002901546A8EB0600019046
:1019000003EB05001C46F907A8EB050B00900DD072
:1019100002981FFA8BF281B20398FFF775FD0198C8
:1019200082B2009881B20398FFF76EFDB907A4EB6D
:10193000060AA4EB05090DD51FFA8BF21FFA8AF1EE
:101940000398FFF761FD01981FFA89F182B20398AD
:10195000FFF75AFD08EB0504390708EB06050BD520
:101960000298A2B281B20398FFF74EFD0098AAB286
:1019700081B20398FFF748FD78070ED5A2B21FFA8F
:101980008AF10398FFF740FD039807B0AAB21FFA47
:1019900089F1BDE8F04FFFF737BD07B0BDE8F08F24
:1019A0002DE9FF4FC3F1010083B006B258429146C2
:1019B000DDF840A040008B4601271C46CDE9009A87
:1019C00000250FFA80F85B462246294615E0002ED6
:1019D00008DB08F102000FFA80F8641E06EB08002D
:1019E000A4B206B26D1CBF1C3FB2CDE9009AADB2E5
:1019F000F01906B25B4622462946039800F005F826
:101A0000A542E4D307B0BDE8F08F2DE9FF4F83B0C6
:101A1000164610980F46A0EB060B03EB070001904B
:101A20001098DDF84490A0EB070098465FEAC97172
:101A300003EB060A02F1010507F1010400900FD043
:101A40000198ABB281B21FFA8BF20398FFF7F0FD59
:101A50000098A3B282B21FFA8AF10398FFF7E8FD5B
:101A60005FEA8971A8EB0707A8EB06060DD5ABB2B4
:101A70001FFA8BF2B9B20398FFF7DAFD0098A3B210
:101A800082B2B1B20398FFF7D3FD5FEA09700DD5BA
:101A90000198ABB281B2109A0398FFF7C9FDA3B2C7
:101AA0001FFA8AF1109A0398FFF7C2FD5FEA4970A6
:101AB0000ED5ABB2B9B2109A0398FFF7B9FD109AE0
:101AC000039807B0A3B2B1B2BDE8F04FFFF7B0BDC5
:101AD00007B0BDE8F08F38B5C58F049C0094521B49
:101AE000C46A92B2A04738BD38B5049C0094FFF791
:101AF000F2FF38BD2DE9F0471C4691468846064660
:101B000000F002FD00254FF6FF777268217830461D
:101B100090470346B84225D0641CA3F57F40FE38A9
:101B2000F3D04A4641463046FFF7D9FB96F870108D
:101B300031B1012907D0022908D003290FD10AE0C9
:101B400008EB000104E009EB000106E0A8EB00014E
:101B50001FFA81F803E0A9EB00011FFA81F928447C
:101B600085B2D2E72846BDE8F0870020704710B55F
:101B70000C4600F006F80122641EA240801A40B212
:101B800010BD30B50568047B2A78E2406318DBB2EB
:101B9000082B09D36D1C05602D78C4F10804A540FD
:101BA0001543083BEAB2DBB201248C40641E1440AA
:101BB0000373204630BD00002DE9F843054600F1CF
:101BC000600400F00CF915F96B6F2046E97BFFF714
:101BD000CEFF8146297C2046FFF7C9FF0746697C76
:101BE00020466B3DFFF7C3FF804694F90A000028AA
:101BF00057DDF019404247B2237CA0883A46494657
:101C0000FFF7CBFDA080237C3A46E0884946FFF7EA
:101C1000D2FDE080A188277C02460B4637B1012F18
:101C20000AD0022F40D0032F0FD146E094F90A705A
:101C300030443B449BB207E0891B491C94F90A706D
:101C40005B1C89B29BB2384480B200902846FFF7F3
:101C5000F5FC30B30020207284F8090095F8761066
:101C60002046FFF78EFF814695F877102046FFF754
:101C700088FF074600224946284600F027F801223F
:101C80003946284600F022F801212046FFF779FF67
:101C90000028EFD194F90900B042DFDBA07B85F882
:101CA00092004046BDE8F88394F90A705B1CC91B9A
:101CB000491C89B29BB2921B04E094F90A70334428
:101CC0009BB2D21B521C92B2401CBDE72DE9F74FCC
:101CD00084B00D46049C94F8687094F86980603470
:101CE000A07AC01BC6B20196B54200D201954FFA48
:101CF00088F279B2A088B4F806B0237C924689466F
:101D0000FFF74BFD0290237C524649465846FFF7A9
:101D100052FD0246069808B1A17B02E0607B50B9F3
:101D2000E17B049880F89210207C0090DDE901317D
:101D30000498FFF713FBB54207D3A81BC5B208F1FF
:101D40000100002700F0FF08CAE77819207284F824
:101D5000098007B0BDE8F08F70B50D460146806D73
:101D60001730FF2D10D8612D02D3B1F8881003E091
:101D7000412D02D3B1F886100844417819B3027896
:101D8000AA42F9D1801C70BDB1F88A100C18264601
:101D90000021304600F019F804440221304600F0DA
:101DA00014F8361DA842F3D34FF6FF72207802EAEA
:101DB00000216078084306D0A84201D1E01C70BD24
:101DC000A0780444F2E7002070BD08444FF6FF728B
:101DD0000178407802EA0121084480B2704730B5AA
:101DE000054600F1600401660020207315F8781F95
:101DF0002046FFF7C6FEA07269782046FFF7C1FEB5
:101E0000E072A87EA07310B10020E07330BD012005
:101E1000FBE7000010B510462B291AD006DC282954
:101E200023D0292909D02A2905D109E0104B4C29B2
:101E300011D04D2913D0002010BDFEF74DFB14E04A
:101E400000204FF4A07100BF401C80B28842FAD33A
:101E50000BE000BF09E002B10122402102E002B123
:101E6000012280211846FEF739FC012010BD000038
:101E7000000C01408A4205D2834201D89A4203D91C
:101E8000012070478342F9D800207047F0B502F076
:101E900007060124B440002590F892E0E7B2DDF88F
:101EA00014C02C46BEF1010F01D83D4600D03C467F
:101EB000076822F00702BCF1000F3F7C07FB02F726
:101EC000BAB2476B3A44114409D108785B1E2843E3
:101ED00060401B0401F8010B1B0CF6D1F0BD0A7821
:101EE000761C2A436240A3F101030A7016F007062C
:101EF0009BB206D06A06150E6206140E002BEED1B8
:101F0000F0BD428F114490F89220012A03D800BFFF
:101F10004FF00105F2D04FF00104EFE70821017006
:101F2000004870471800002070B5054608782870F2
:101F3000487868708878A870C878E870087928713F
:101F40004879687188790C46A871E079E871207A3F
:101F50002872607A6872A07AA872E07AE872207BB0
:101F60002873607B6873A07BA873E07BE873207C98
:101F7000287411212046FFF728FF6882132120468C
:101F8000FFF723FFA88215212046FFF71EFFE882F6
:101F900070BD2DE9F843064690F8387090F8395036
:101FA000006800244FF6FF7890F8119031683046B1
:101FB0002A460B7C716B04FB03FC1FFA8CFC08EABD
:101FC000CC0C61440091002100F040F8641C6D1CB1
:101FD000E4B2EDB2BC4201D24D45E7D3BDE8F8838F
:101FE000F0B590F838204FF6FF75036805EAC20196
:101FF0008187197C05EAC101418790F8394005EADB
:10200000C401C1875E7CA718B74201D9321B92B2C6
:1020100005EAC20220F8401F11444180998A81805C
:10202000D98AC180F0BDFFF7DBBF0021A0F84810BE
:10203000B0F84410A0F84A10B0F84010A0F84C10C6
:10204000B0F84210A0F84E10FFF7C3BB1CB58DF8D6
:1020500005108DF80620049C8DF8043000940122B0
:1020600084686B460F21A0471CBD30B484680023F0
:10207000A44630BC1A460A21604730B48468002365
:10208000A44630BC1A461021604730B4846800234F
:10209000A4460A4630BC0B2160472DE9F0411546A5
:1020A0000E460446069F00F009F86761A660C4E981
:1020B00003532046BDE8F04100F012B8002140F87B
:1020C000081B064A026042608260C260C176817766
:1020D0000161FF21017780F820107047CD240008AE
:1020E00030B484680023A44630BC1A4609216047F6
:1020F000080001D00A2801D14FF6FF70704730B4B4
:1021000004690023A44630BC1A461921604713B560
:102110000122046901AB1721A0471CBD30B404693A
:102120000023A44630BC1A461821604770B51646F5
:102130000446182924D004DC142914D0172904D10A
:1021400005E019293DD020294CD0002070BD1D4646
:1021500006E029782046FEF78CFF761EF6B26D1C4D
:10216000002EF6D13EE001224C2100F0B1F901220F
:102170004D21204600F0ACF92046FEF753FF31E038
:1021800094F8250040B12046FEF75CFF2046FEF79C
:1021900049FF2046FEF74BFF2046FEF753FF20463F
:1021A000FEF73CFF2046FEF73DFF2046FEF732FFDC
:1021B000012184F82510204694F82410FEF759FFD9
:1021C00010E0FEF72BFF2046FEF72CFF2046FEF71F
:1021D0002EFF2046FEF736FF2046FEF723FF0020A5
:1021E00084F82500012070BD30B4C4680023A446E3
:1021F00030BC1A461921604730B4C4680023A44695
:102200000A4630BC1621604730B4C4680023A44697
:102210000A4630BC1521604730B4C4681346A44652
:102220000A4630BC17216047F8B50C464FEA000556
:1022300014F8011B182924D00EDC152919D01629F1
:1022400017D0172923D120788DF800006A46012184
:102250002846FFF7E1FF0AE0192912D0FE2916D11E
:1022600022788DF800202921284600F031F9641CDD
:10227000DEE722788DF80020EE6800232846B0477C
:10228000F5E70023EE681A462846B047D0E7F8BDC8
:1022900030B4C4680023A44630BC1A4618216047F5
:1022A0002DE9F041DFF8B08014460646A1F1140292
:1022B000002798F800001D46062A4AD2DFE802F0FF
:1022C0002F03161B3E4310B13046FFF718FF304670
:1022D000FFF724FF00213046FFF719FF2146304663
:1022E000FFF715FF012088F8000029E0214630465D
:1022F000FFF70DFF24E050B13046FFF700FF06E086
:102300001821304600F0EAF8183CE4B21835182CD1
:102310002A46F5D82146304600F0E0F80EE096F85F
:102320002400FF2802D1782086F8240037692B4644
:1023300022463046BC46BDE8F041604788F8007050
:102340000120BDE8F0810028F8D03046FFF7D7FE25
:10235000F4E70020F5E700001000002070B500232E
:10236000456904461A462821A8470023E5681A460D
:1023700014212046A84701224B21204600F0A8F84E
:10238000206829210279204600F0A2F800224B2182
:10239000204600F09DF8206829210279204600F0AF
:1023A00097F801224B21204600F092F8206829215D
:1023B00042792046BDE8704000F08AB80160897C0F
:1023C00080F822107047000070B50C46054600F0FA
:1023D00019F888B9092C0BD00A2C01D0002070BD47
:1023E0002846FFF7BBFF05492846FFF71DFF03E01E
:1023F00003492846FFF7E2FF012070BD564300085D
:10240000584400082DE9F0411E46144605460B29A4
:1024100008D00D290ED00E291ED00F2927D000205C
:10242000BDE8F0811AB12849FFF7FEFE4AE02649CF
:10243000491FF9E74AB124490C31FFF7F5FE286836
:1024400090F8130085F822003CE01F49491DFFF772
:10245000EBFE2868807CF5E7FFF71AFF812128460C
:10246000FFF7D2FE21462846FFF7C6FE27E0FFF71A
:102470000FFF707995F8221001EBC000C7B2402120
:102480002846FFF7C1FE102040EA17112846FFF743
:10249000BBFE07F00F012846FFF7AEFEB07940F013
:1024A000B0012846FFF7A8FE30793268C006010E59
:1024B0002846FFF7B1FE641E14F0FF04F4D128464D
:1024C000FFF792FE0120ABE735430008002070477C
:1024D00030B444690023A44630BC60472DE9F04184
:1024E00015460E460446FFF719FE40212046FFF729
:1024F0000EFE27692B46324617212046B847204654
:10250000BDE8F041FFF7FBBD002180F826107047C1
:102510002DE9C04130B4DFF8A0C23CEA111418BF65
:102520003CEA131400F0EC8081EA03051CEA111464
:1025300044EAD57418BF1CEA131500F0C780A4EB59
:1025400005044FF0004545EAC12145EAC32341EAAD
:10255000505143EA525304F17F74994204F5003418
:102560004FEAC0204FEAC22208BF904200F09C8090
:102570004FEA13650FF24016765D4FEA134506FBEE
:1025800005F7C7F1807706FB07F74FEAD737A7FBB8
:1025900003687642C8F58038A7FB06CE38BFA8F19D
:1025A000010807FB08E64FF0000EA6FB028CE6FBD5
:1025B00003CEDCF1000CCEF1004E38BFAEF1010EBF
:1025C000A6FB0C584FF000074FF00005E6FB0E8706
:1025D000A1FB08C6A0FB07CE16EB0E0645F10005D1
:1025E000E1FB076515F1E04E7EBFA4F580345FEA9C
:1025F00046066D4116F1800745F100054FEA1727A1
:102600004FEA066647EA0567A6F1DE46B6F1805F47
:102610004FEA15251FD9384624F0010C05EBC4718B
:10262000BCF1FE6F01EB0C1102D8F0BCBDE80081DB
:1026300024425CBF01F5801E9EEAC47F02D4F0BC38
:10264000BDE80081244238D4F0BCA1F1C041BDE80E
:10265000004100F0F3B94FEAD22242EA43524FEA76
:10266000D323A7FB02864FEAD02040EA415007FB64
:1026700003661EEA0E0F4FEAD12105FB026658BF22
:10268000A6EB0056B6EB00564FEA520E4EEAC37E5A
:1026900018EB0E0E56EB530EBDD518EB02085E413B
:1026A0007F1C55F10005B6E74FF480154FF0000789
:1026B0004FF000064FF00008ADE7F0BC4FF000000F
:1026C00001F1C04101F00041BDE8008111EA0C1F99
:1026D0000CEA131500D00CE013EA0C1F00F0258063
:1026E0004FF00000F0BC81EA030101F00041BDE8B9
:1026F0000081F0BCBDE8004181EA030100F09EB911
:10270000F0BCBDE8004170B500F04AF9097EFC3E1E
:1027100000F007B881EA03014FF0000001F000412A
:10272000704781EA030100F089B9F0BCBDE80041BF
:102730004FF0000021497047FFFDFBF9F7F5F4F277
:10274000F0EEEDEBE9E8E6E4E3E1E0DEDDDBDAD84C
:10275000D7D5D4D3D1D0CFCDCCCBCAC8C7C6C5C4AA
:10276000C2C1C0BFBEBDBCBBBAB9B8B7B6B5B4B3C1
:10277000B2B1B0AFAEADACABAAA9A8A8A7A6A5A4AC
:10278000A3A3A2A1A09F9F9E9D9C9C9B9A99999870
:102790009797969595949393929191908F8F8E8E13
:1027A0008D8C8C8B8B8A89898888878786858584A0
:1027B00084838382828181800000FF070000F87F8C
:1027C0004FEA41034FEA5353A3F58063D3F11E034D
:1027D000C8BFD3F1210C0CDD4FF0004242EAC12208
:1027E00042EA505232FA03FC8CEAE17CACEBE17035
:1027F0007047102BC4BF0020704703F5787CBCF1F4
:10280000FF3F04D06FF0004282EA2100704770B5AC
:1028100000F0C6F84992248000207047F2E710F0DB
:10282000004248BF4042B0FA80F310FA03F10AD0E8
:10283000C3F11D0303F580634FEA415002EB0352DD
:1028400002EBD12170474FF000007047DFF848C11C
:1028500070B51CEA111E1EBF1CEA13159EEA0C0F70
:1028600095EA0C0F00F06F8081EA030423EA4C1311
:102870004EEAD47E21EA4C1141F4801143F48013D6
:10288000AE44A1FB024CA0FB0365AEF17F7E36197E
:1028900055EB0C05A1FB034C4CF10003A0FB021C03
:1028A00016EB0C06654153F10003094218BF46F0D0
:1028B000010613F4007F0BD14FEA03314FEA0530D4
:1028C000340341EA155140EA16506FF003020AE062
:1028D0004FEAC3214FEAC520F40241EA555140EACC
:1028E00056506FF0020202EB2E4201EB025585EAD0
:1028F000CE710AD05FEA440C18BF24F0004450F1B6
:10290000000041F1000120EAD47040F2FE7C6245F3
:1029100000D270BDA84214BF4FF080444FF0404435
:10292000002E08BF0024BEF1806FA8BFA1F1C041F6
:10293000BDE8704080F282804FF0000001F1C0419C
:1029400001F0004170479EEA0C0F0CEA131518BF06
:1029500095EA0C0F06D04FF0000081EA030E0EF04E
:10296000004170BD00F01CF88900013E00F007B87E
:1029700000F009B84FEA430C5FEA5C5C08D081EADA
:10298000030100F05BB84FEA410C5FEA5C5CF6D1F2
:102990004FF00000014970470000FF070000F87F7A
:1029A0000EF1020E2EF0030E5EF8046B364205D4D3
:1029B000012A43EB030515F5001F12D8012841EB4E
:1029C000010C1CF5001F0CD80ED14FEAD17C15F577
:1029D000001F0CEB4C0C0CF1020C08BF4CEBD37C31
:1029E00004E04FF0080C01E04FEAD37C0CEB4C05FF
:1029F00026FA05F606F00706B6F1040C06D20EEB31
:102A0000860CBDE870404CF0010C6047DFE80CF02C
:102A1000090B02024FF000414FF00000A1F5002128
:102A200070BD19461046012851EB010418BFD4F5BA
:102A3000001484BF002001F0004170BD0808A0F51B
:102A400000114FEA31017047010202030405060735
:102A500008090A0B0C0D0E0F1010000000000000FA
:102A600000000102030406070809BF000202040473
:102A70000304050C0DFFFE08FE08FE016A032C0985
:102A800084200500CC09210882C4C991F2082207DC
:102A9000336D4BB202231087447CCAA81C336554A3
:102AA0008E9932AA012410A53C6B1E2AA938E2880F
:102AB00049A5A1230025158AC49DD44A65552355EF
:102AC0004995544649E5A8725600261188C4AC863B
:102AD0002A2395A186494B73A4A5002706316DCA08
:102AE00000280BA4B47A8C4ABA754601290AA4B40A
:102AF0004A46D974C91A2A09555C6B55AD66042B30
:102B00000B554C6B4671C88C22002C0742B4C94847
:102B10000A2D06135CCA002E0622C4C9082F0A8497
:102B2000C47A99638E3903300E8544DB52238D3489
:102B3000D24823A905310984459B9ABE4600320C30
:102B40008544DB52236929F33802330E8544DB5276
:102B500023498D461A492D00340B8544EB95549A30
:102B6000636439350D8544CB2BA391D14823A90546
:102B7000360E8544DB52238FA4461A492D00370AAE
:102B80008444CBA1638E2E00380E8544DB5223A9EA
:102B9000A5461A492D00390E8544DB52238DA446E3
:102BA0001E492D003A0752C4C988233B0972B4C993
:102BB000882329003C0956CC3B9236D6583D08352F
:102BC00054CBD070083E0A56CC8BC61A4B1B013F23
:102BD0000A8544DBB2A5CCB4094012A93CFD465A93
:102BE0006698E248FE5432939A1E11411289433C82
:102BF000CAD4C61B468DA21E2366A4E608420E87D1
:102C000044CC694935A425951C430143108744EC05
:102C1000AA47461B6AA8518DE24800440F88C4CCDD
:102C2000ADA3565A69A5954E6302450E86C4CB25C1
:102C3000938A23AA28931C23460E86C4CB25934C43
:102C40002A8EA8A21E11470E8744ECAA47461BCA2B
:102C5000A155962B48128944CD482369A9E51851FE
:102C60004B2DB51A6904490984C4CA48D2D7084A09
:102C70000C86C4EBC81A69E42BCA094B1189C4CC71
:102C800088769619A90C8746525B230E4C0F86C492
:102C9000CBC81A69A4914632C931024D158B44CE76
:102CA000C823ED9954924925995492D18CD6522338
:102CB0004E1188C48C5E3ACE38524C23C699D54EFC
:102CC000004F0E8744ECAEF4C8238FAC729E0050C8
:102CD0000F8744CC694925D5901A6A3432005113C4
:102CE000983CEC46396AA595562349A5D148192A3E
:102CF00000520D88C4CC2D3DF3D0D235D200530DF7
:102D000086C4DB39F2D068E811D702540E86C4CBF2
:102D1000915C51238D34D22301551088C4CC484B8B
:102D2000471D75D451479D4704561188C4CC484B64
:102D3000479D55462A2395A1C61A57158B44CE4860
:102D40006A4919CDA8928A2AA9BC36D21A690958AB
:102D50001088C4CC484BC795D1C61BA599D511592D
:102D60001188C4CC484B679591CA50638D351C11AE
:102D70005A0B86C4CB91F57CEB31025B08A334CAB5
:102D800050FE1A5C0C84C44ACE28679433CA015D95
:102D900008A334CAF2D7105E0A65546B4679A65A66
:102DA000075F061634CB01600623748A1461095448
:102DB000C4CA56238D01620E86C48B461A69641DEF
:102DC00071C4B50063095544DB925BA605640E86A9
:102DD000C4FB461AA931E288232D0365095544DB5B
:102DE00052E34623660C85C4EA52498EA8CD910071
:102DF000670D86343B8A5339F7D8632400680E8602
:102E0000C48B461A69641D71C41105690A84C49A89
:102E1000D470BA46006A09A3B49ABDBC46026B0ED0
:102E200086448B461A69648D38A2B2066C0884C445
:102E3000CAF46B046D0D5AC48D92EA11E588724490
:102E4000036E0B56C48B52471C7144016F0C56C461
:102E5000DB4872C411D54800700D76B48B52471C04
:102E6000718CA4D106710E77B4DB505249A5A6D25D
:102E700050A311720954C48A1A239A00730954C4C6
:102E8000DA90230E05740973445A52439902750B64
:102E900056C48B1C71C4919601760B56C4CBB2A25A
:102EA000CA1A4900770C5944CDF28A4A65A591099E
:102EB000780A56C4CBB2B24ED600790D76B4CBB2F6
:102EC000A2CA1AC9AD11007A085544CB25CD317B71
:102ED0000AA4B4AA9296966E017C068146CB217D07
:102EE0000AA4B48A96B6922E097E0726DCDB520B22
:102EF000A00500CC09A10982B4C9C8698C00A20C44
:102F0000753C3B4A632595569A19A3108744EC8873
:102F1000326A34B6465A8D911600A40C574C4C5A5E
:102F2000C95452A9B402A51288C4CC484B679591E4
:102F30008D341C1A69382200A6078146CB1A01A7D6
:102F40000DA4B4DA885BA591929E2301A80723748F
:102F50004A5201A91288C4ECC819954BC5A43292F3
:102F6000AB46794400AA0863548A1E2A0FAB0A565E
:102F7000C46BA546924A16AC093554CBD028A300A1
:102F8000AD06135CCA00AE1288C4ECC8195523A95B
:102F900098D45449D5288F08AF0614F4CA08B0084D
:102FA00043645AA52A00B109554C6B1C325343B2F5
:102FB0000743E4D9AA06B30743E4C9CA0BB40723FD
:102FC00074DA4800B50E76B48B1C71C491C61A1918
:102FD0006904B6108744DC38521A29AE8C6A54A3AF
:102FE0007A08B70622DCC908B80632354A1CB90788
:102FF00043E4599269BA0A64D49A8A32693802BBA6
:103000000C56C44B8C4AAA91548C00BC1188C45CE9
:103010008EBACC2BE39851D269C49C00BD0F88C4F2
:103020005C8EBACC2BE3A85399CB01BE1188C4CCDB
:10303000CC35AA65C631A3A4D3883901BF0B85342A
:10304000ABD674B4955A00C015B943AC2635CF4CF5
:103050006DBC61D428EA3162466A8E00C115B9435D
:103060003CD458F3CAD4C61B468DA21E2366A4E6E0
:1030700008C215B943FC864A73676AE30DA346513B
:103080008F1133527304C316B943BCCA28695E99C1
:10309000DA78C3A851D463C48CD41C01C416B943D4
:1030A0007CCA38655E99DA78C3A851D463C48CD4DD
:1030B0001C01C516B943BCC631634D666AE30DA356
:1030C00046518F1133527304C6148AC4ED183AC99D
:1030D0009C548E230F15B34C598E3406C712A73457
:1030E000ECAA47461B6AA8518DE2C828430DC812B6
:1030F000B6C49B869A1C4B26154754512639460068
:10310000C910B6C4BB4D8E25938A23AA28931C23CD
:10311000CA11B6C4EB541A8F25938A23AA28931C8C
:1031200023CB12B6C46BCA295363C9A4E2882ACA46
:1031300024C708CC0BB4C48AD67024E96B04CD0B29
:10314000B4C4AAD27024E96B04CE0CB5C4DAB2E1DF
:1031500088DAE74800CF0BB4C45A371A49FA1A0183
:10316000D00F88C4CCADA31E5369A5954E6302D180
:1031700014B8C4BCCA49B3F4D271C691621A31CE34
:10318000AC7602D211B744ACC69AB92B3DF2C82333
:10319000AB9C2700D311B744BC469ABD2B3DF2C867
:1031A00023AB9C2700D411B744EC569AB52B3DF2C3
:1031B000C823AB9C2700D511B744AC8A493377A507
:1031C000471E796495F304D611B7446CCAA866EE1D
:1031D0004A8F3CF2C82AE709D709554C8B523B2F3E
:1031E00003D8108744ECAA931C2A8D94865439A5E1
:1031F00009D913B8C4ACA63473A4A5A38E3AEAA81F
:10320000A3CE2302DA14B8C43CD25033475A3AEA68
:10321000A8A38E3AEA3C2200DB13B8C4FC46363D34
:10322000D2D251471D75D451E71101DC14B8C47CCA
:10323000CA3065D6484B471D75D451479D4704DDBC
:1032400015B8C43CD25033475A3AAB8C54861A6BEB
:10325000ACE18800DE0F8744CC86435A524935A43E
:10326000462303DF0E8744EC889654A625951C4A16
:1032700001E00B84C48AD670AB91C600E10B84C414
:10328000AAD270AB91C600E20D95C46A5E36DC48E6
:10329000AEA44602E30C85C49A1B6F245752230147
:1032A000E40B84C44A6AC3AD461A03E50B84C49A8E
:1032B0008A496D35D218E60C58C4CC5A51A971E927
:1032C0003502E70B7534DB925BA69D2500E80C8583
:1032D000449B469A5A6ADC6804E90B8544AB4D2E40
:1032E000356E3402EA0C95446B5E365E6ADC680427
:1032F000EB0C85445B9932B5D4B8D108EC0A84C490
:103300008AD670BA4600ED0A84C4AAD270BA4600C2
:10331000EE0B95C46A5E36DCCE9100EF0A84C44A97
:103320006AC3E91A01F00E86C48B8CB31E498E382D
:10333000A21A09F10D86C49BAA34A9D411471C51C5
:10334000F20E86C49B869A1E498E38A21A09F30D86
:1033500086C4BB4D8F24471C518D04F41096C46B5A
:10336000465369722439E2886A2400F50F86C4AB9B
:10337000AA3439921C7144351200F60F86C45B9D45
:10338000323D921C7144351200F70A554C6BA686EB
:10339000A62200F80E76BC3B4C23A9B14654236507
:1033A00008F90D86C49B869A94238E38D232FA0C83
:1033B00086C4BB4DCA11471C6919FB0F96C46B46E6
:1033C00053694A8E38E248CB00FC0D86C45B9D32BF
:1033D00029471C71A465FD0EA6B4BB4D2E2BAAACCB
:1033E00091DC1A01FE10A6B48B461A69641D71C4E3
:1033F0003192461BFF0FA6B45B9D32B9ACA8B24612
:10340000726B0400000004FFFF0000BF000303050F
:10341000050405061213FEFD0CFD0CFE023104F935
:103420000EFA200600642401210D83252C13395443
:1034300042D1882502220CA5E035216119454211AF
:1034400000231A8A215427128A8422D1417210291A
:103450008A4407C941A428128A6400241DE9E15363
:103460001987846B9250441429A5188F9650A8127E
:103470002285249288AC1C0425258C2574350B4E9E
:1034800088A2485016098A22515124329A4426D1E2
:10349000882818910523A26048148C8D00261A8C68
:1034A00025744917894562519C8922194946939090
:1034B0008CB654B29426002708A2E425718900280E
:1034C0000EC4A533170AA988F426920503290FC450
:1034D000A133118C896422BD884469002A11E760F8
:1034E00045178CA44822A2912422C918032B0D0849
:1034F000255427563B1C646235002C0CC4602B23DA
:10350000A18C429218002D0744E02C71082E09640A
:10351000202C23A148002F0F85212C99164C0BC677
:103520008269C1200030148921543795C89464926F
:1035300099B7894C245391CE00310A872554272A04
:10354000EE9F0E3213882554458B4946A6496C38A8
:10355000D516111E0E03331589215455132DC9623A
:103560006269793E919D26A259090034148921543B
:103570001D174F89916164161AC54607E1787835A1
:10358000138825547331C5E3B5D0781233994AA313
:103590001200361689215457134D441499643C196E
:1035A00051D66C13D96491043712882554F110094F
:1035B0004A82926058552C5D0E0238158825544574
:1035C000134946A68948461349464E13918C04393F
:1035D00017892154459CAC4966B6C98434194F6497
:1035E00012926424AB013A0D04212C23A1C861126C
:1035F0008A04003B0F64612B23A1C86112CA2824EE
:1036000089013C0B0865542D24319299053D0BC866
:103610006454F120473A1C043E0B08655421E648E7
:103620006214033F148821444513492813D1702A9A
:103630008DA384A7E32000401CACE163599D8DE479
:10364000A19824429288F42F14C9241492C5E4A2AC
:10365000D9B406411B8D216C2B07CE6173101D144C
:10366000994BE6B1E9212A9B4667D211CD00421A57
:103670008C216C7118CE1647C3D16C7608CE1647D4
:10368000C3D170349B1C460043198B256C5909CD5E
:103690002653C9984E87CC21F3C838328DCDA43437
:1036A00000441A8D21747110CF866BC3D974341DF8
:1036B0004D47D3D170369C2D1D840045198B216454
:1036C00071200D4543D1286922B54EA4A3A4696891
:1036D000281A1E0C46198B216471200D4543D128F0
:1036E0006922B54EA4A3E81C32878C8F00471A8D3F
:1036F00025745909CE5665E3D03C3487CD0ED3D915
:1037000070365C22934200480F8E217C71310DF798
:10371000E361B8FF7431490A87213C711AEE9F0EAC
:103720004A128A215C779DEF261A51464BC1916857
:1037300058044B1A8E216C71A90DA533F1483E91A6
:1037400043EEF70979449D1187948B014C198B2125
:1037500064719E43E69039640E9943E69069681A55
:103760001A8A8607034D25902184613411899119A5
:1037700031328A0C23A3C83034890C43A4618834C5
:103780008C8D8631D9306D540A194E1D8E217441AD
:103790002D8D83D4603185160C9182314A30588C3E
:1037A00012C3C3B8A81C024F168C2574491ECD86BF
:1037B000A3E164EC79321C0D67A331110050198C20
:1037C000216C7118CE1647C3D170349B1D8273D003
:1037D0001C3407CDAF00511DEC6573491ECD86A387
:1037E000E164EC493491842222B6D1B80E9BC4EB3B
:1037F000900900521B8D21747198CE866BC3D9E25B
:10380000213A128FA6B3E16C129A1D68130053146B
:1038100089255C5549AC926D11A32566A6162391A6
:10382000120054198B21647130ADCD64B3E01C32A9
:1038300087CC2173C81C32878C4F00551B8E217496
:10384000712A8D83E3E038380E8E83E3E038388EBA
:103850000EC32439840A561B8D1D6C71224D65C41C
:10386000E8303A8B8FE29338A40EA283E6403950B9
:103870000A57228F2184516199E9161C8D82A389F0
:103880007042094B229230853C9A436472884C0EF8
:10389000910901581A8C216451AA4C65C3E8285C2F
:1038A00087D021744839440CCEA4935201591C8D01
:1038B0001D6471290DA5B3F0280E99C42174D81C7C
:1038C0003687CD6173D81C72035A1489255C712028
:1038D0001227C1E9F27416194666B543015B09C4A3
:1038E000A53361D2FF445C1087255421154BC55286
:1038F000B1542C154B055D09C4A53B41D2FF645E54
:103900000DE864552796D2445A8444015F0748A0C5
:1039100043F1206008646036219A0961110921543D
:10392000635A910D4BA2C96832214D08621B8B1D51
:103930005C5187CC2173C81CB248992DCD46B3D1B8
:103940006C449945222300630E08214C551A95AC0E
:103950006B92898C04641A8B215C4B87CC2173C8D1
:1039600070329B9066A3D968369AAD102791016595
:1039700010092154559BAC1D0EE1A164242B016656
:1039800010891D3C49948C26B2E171BCC7130067B5
:10399000128961532FBA6CB35D4645F9E5403C503E
:1039A0000068198B1D5C4187CC2173C81C32A19122
:1039B00046A4B5D16C341BCD260D690B852134236B
:1039C00022C949FB526A10E6593327A3C921B57DA4
:1039D000AB544423006B178B215C4187CC2173C807
:1039E0001C3229AD4D86D6E368B6D2006C0985211C
:1039F0003441DA7F296D100F21844119CD2894D1EB
:103A0000FE7FA94C0A6E120B1D5C41A191D646B3F4
:103A1000D16C341BCD260D6F0F0A215C471C4D86DF
:103A20001E27A3210D0070176A5D5B41995146B3B3
:103A3000C96C329BCC2694D164361F570171136A2E
:103A40005D535509ADCC26B3C96C321BADDD970B68
:103A5000720E09214C4119519644E3AD4500730D96
:103A60000721444399D54EB7DA8402740F66213C8E
:103A7000170D8A2CB35D22A5090075140B1D5C413E
:103A800022CD46B3D16C341BCD46145A6500761353
:103A90000A215451A1CC4423E144380993E7102171
:103AA0000077170F217C516199A98D46C109454ABC
:103AB0002153E83239442604780F09215451598B97
:103AC00055C7D35A6C322979166A5D5351A1CC641B
:103AD00023D9285A9ECF21524974129E027A0F0789
:103AE000214C71104942B3A170443A087B0DC4A522
:103AF000332511E92213E94D007C08823154F1612C
:103B0000007D0DC4A1332113E92611E945047E0C83
:103B100068E454338A1C22A10900A0060064240131
:103B2000A10D83652B13B1444391432502A2148850
:103B3000A1531F8E95462597D8241419C588E130C6
:103B400000A316892154571B494693D164161B5E66
:103B5000E5529AC4241901A41508A5541391440EE2
:103B6000119144489488248748441201A5158A215C
:103B70005451A1CCD48213A9244C358BCD7288D852
:103B800004A60982315471181E06A718E6654B3544
:103B90000A494212A98C121BCE2234A94414118561
:103BA0004600A80845603621A108A91C8C2164673D
:103BB0001DCDC4125185220A8DC422F144242191C5
:103BC0002462D9686A03AA0EE66035330A89284A56
:103BD00012710500AB0CA6A4449522A18824A2046E
:103BE000AC09A8A054F120D600AD0744E02C710820
:103BF000AE1C8C2164671DCDC412498994341BCA44
:103C000022B25148429954C4B2D1D406AF0625A07D
:103C10003651B00CA5E43D3391CC26920900B10F8A
:103C200028255427961D0E32B11C783808B20CE5B1
:103C3000603533095164690701B30FE660354311FC
:103C4000494232518824A100B40864643625290110
:103C5000B5196B615B4122CD46B3D16C341BCD46A7
:103C6000149264450E9A43E600B61B8B21647338A8
:103C70008444255149549291A422A9482A928AA4A5
:103C800022D96100B70964E02C23A14800B8098457
:103C9000603313935500B909E464351519E942BA44
:103CA0000BE560353391B048C605BB0EA6A44411A0
:103CB0000A4944128A241402BC1B8C2574150E4D2B
:103CC0006542C5A84C2A4BA188A4A26928516292DA
:103CD000CAA204BD1C8C2574150E4D6542C5A84CA6
:103CE0002A8B4C2823A144311A140685A46001BEF6
:103CF0001E8D2174430DA9C942CAB26848221449D5
:103D000062218A482C1A87522536A9304ABF148866
:103D10006143199E8EE32851E97024995044321270
:103D200000C0200D226C2707CEA1726C72E01C36F9
:103D300007D14191B9641E9B1EA2B26974261DD1A0
:103D40000CC1200D226C2F87CD41726C72E01C36A5
:103D500007D14191B9641E9B1EA2B26974261DD180
:103D60000CC2210D226C1D07CE4112391639700E7E
:103D70009B83E8A0C85C328F4D0F51D9343A938EA3
:103D80006806C31FED216C398947E698E4C0396C99
:103D90000EA2832273C93C363D4465D3E84C3AA257
:103DA00019C41FED216C27928BE458E4C0396C0EC6
:103DB000A2832273C93C363D4465D3E84C3AA2192C
:103DC000C5210D226C2B8745E430393639700E9BA6
:103DD00083E8A0C85C328F4D0F51D9343A938E6876
:103DE00006C620901D8477B016A591A134324A0CE6
:103DF0004DE421736C223E659C868243897068394C
:103E000010C71CEB656B5909CD2653C9984E87CC5A
:103E100021F3C838328DCDA474394C3E05C81E0B31
:103E200022642707CD6172940369281A8A464913D0
:103E3000A975221D254D4343D1F060C91E0B226494
:103E40002F87CCE52807D25034148D922652EB44AC
:103E50003A4A9A8686A2E1C100CA1E0B22641D0757
:103E6000CD2572F08134140D45A3A489D43A918EE6
:103E700092A6A1A1687830CB1DEB216427928AE439
:103E8000E00369281A8A464913A975221D254D4366
:103E900043D1F060CC0E07223C231DCB41A7E1FEAD
:103EA000E900CD0E07223C299CC961A7E1FEE9008B
:103EB000CE0E07223C179D49E490D370FF74CF0EBD
:103EC000E7213CA32491434EC3FDD301D01A8D2199
:103ED000747110CF866BC3D974621B4D47D3D170F8
:103EE000369C2D1D8400D123EE21743B894322731F
:103EF000546A691CA4068B29B46088148C5182C151
:103F00006294181EC645E51000D21B0C2674278744
:103F1000CD817274F268361C0D2763CF93E1683847
:103F20001B8D8900D31B0C26742F07CD217274F2D0
:103F300068361C0D2763CF93E168381B8D8900D448
:103F40001B0C26742B07D1457254F268361C0D27C2
:103F500063CF93E168381B8D8900D51AEC2574393D
:103F60000947E6C8E4D16C381A4EC69E27C3D17003
:103F7000361A1301D61AEC257427128BE4A8E4D163
:103F80006C381A4EC69E27C3D170361A1301D7114A
:103F9000082554138C8C26B6F1CC329A042300D811
:103FA00020CCE5730F0C9262A3D970349C0C23B61D
:103FB000902966094E86A3E16C340B11E34000D9C9
:103FC000210E22742B87CEC172D453691C1C07C7E3
:103FD000C171701C1C07C7C171741826C921540017
:103FE000DA220E22740F9203E73039EAA9340E8EDA
:103FF00083E3E038380E8E83E3E0383A0C93E41024
:104000002A00DB210E22742F07D241EA68A7D2389A
:10401000380E8E83E3E038380E8E83E3E8304C921E
:1040200043A800DC21EE21742B92434472B45369FF
:104030001C1C07C7C171701C1C07C7C171741826EE
:10404000C9215400DD230D1E640F91C3E62039E21F
:10405000A53494CEC2A338641287D06173D81C36BD
:1040600087CD6173C80D00DE188C216C719F830EA3
:10407000C1D9E268381A8E66B343700E9A5F01DFC9
:10408000178A21545714ED936C329B896693D96437
:1040900036A14C282300E015892154239F43E47066
:1040A000D38A6C58124D4693096942E1158921540F
:1040B0002B9ECAE1A615D9B0249A8C2613D284006F
:1040C000E215892154179F4AE460D38A6C58124D37
:1040D0004693096942E315692154358945E660D361
:1040E0008A6C58124D4693096942E415692154A31C
:1040F0002891834D2BB2614934194D26A40901E55D
:1041000015892154278E88E570D38A6C58124D4644
:1041100093096942E6160D217C53212D4964A3D1F0
:1041200081229A8E661592885202E71268614B5579
:104130001A956CD5996422A3CA853300E8158921A4
:1041400054259F43E4F0DA64ED70080F25235909E4
:1041500000E9148921542B9ECA516A93B5C3213CAE
:10416000948C642500EA15892154199F4AE4E0DA09
:1041700064ED70080F2523590900EB1569215425BA
:10418000114AE4E0DA64ED70080F2523590900ECC8
:104190000B852134211B8A49FB52ED0B85213427E5
:1041A0009AC849FB52EE0C852134159BA892F6A5BE
:1041B00000EF0B65213421A14849FB52F014A921DD
:1041C0005C23874C8453897C589ADCBC4D1667006D
:1041D000F1166B1D5C398946E6700A8DB4369A8DEE
:1041E00066A3D9683669F2148A215C2787CC4172AC
:1041F00014DB6832F43819CD4C00F3128A215C2D9F
:104200001FCB916CA3C9D0E364343301F4138A212A
:104210005C29A78AE470DB6832F43819CD4C00F5CC
:10422000136A215C370946E628B6D164E871329AF0
:104230009900F6136A215C25914AE428B6D164E816
:1042400071329A9900F70E0825542796030F073903
:10425000502C03F81789A1530F89076923C9E81265
:10426000B1444E13D18C188F4300F9198B1D5C2774
:1042700007CD6172141269369A8D66A3D96836A289
:10428000D02A03FA178B1D5C2D87CCE5484CB3D19F
:104290006C341BCD46B311855619FB198B1D5C1B65
:1042A00007CD25723889341BCD46B3D16C341B51F0
:1042B000689501FC186B1D5C27114BE47012693680
:1042C0009A8D66A3D96836A2D02A03FD1CEB5D53F4
:1042D0002D87CCE54895CA50368B8AA493387D0E3D
:1042E000124BC293F81800FE18EA5D5B41DF654689
:1042F00019CD26B3C96C329B504693D97C6C04FF10
:104300001BCB5D5327114BE4F04A49289B4545D20E
:10431000499C3E078925E1497C0C00000004FFFF11
:1043200000000000272000082B200008E91A0008E0
:104330001815AF19FF1815AE19FF1815A115C819D2
:10434000FF1815A015C019FF1815A115C019FF18E1
:1043500015A015C819FF1815AE15D5168015A81685
:104360003F15D316001540158D161415201600158F
:10437000A115C815DA1612158116CF15D916F11523
:10438000DB1640152E15A415A619FF1815AE15D568
:10439000168015A8163F15D316001540158D161456
:1043A0001520160015A115C815DA1612158116EF7D
:1043B00015D916A115DB1600152E15A415A619FF83
:1043C0001815AE15D5168015A8163F15D31600156D
:1043D00040158D16141520160015A115C815DA16EE
:1043E00002158116CF15D916F115DB1640152E15BD
:1043F000A415A619FF1815AE15A415D5165015A8A5
:10440000163F15D31600154015AD168B15D916227B
:1044100015DB16351532158116FF15A615DA16129D
:1044200019FF1815AE15D5168015A8163F15D31609
:10443000001540158D16141520160015A115C01570
:10444000DA1612158116CF15D916F115DB1640159F
:104450002E15A415A619FF000001140A6464323257
:1044600000127A0000042896100800008000400026
:104470000001140A6464323200093D0000042896E9
:104480001008020280004000A8440008000000203C
:104490001800000028010008C0440008180000208F
:1044A000600A000044010008010000001000000044
:1044B0000000000000127A00000000000000000070
:04000005080000ED02
:00000001FF
